:020000040000FA
:02000000642872
:08000800FA00030EF900040EDA
:10001000F800030183008C1821280C1810285D2893
:100020000C10A813A80A0C1D1A28960803191A28E0
:10003000A8175D2878302802031C5D28FF140C15D2
:100040005D28FF1D3F28FF1B2D28FF178615FE0189
:1000500081018316861583123F28FF1E35288316DB
:100060000000861183127F163F28FE0A031D3F28D9
:100070007F1B3E287F170D30FE003F28FF16FB0A2E
:100080000319FC0A0319FD0A3608AA0AAA19AA01CB
:100090000319B700B70CB801031CB803860185012A
:1000A00070302A0784002A08801908388500000863
:1000B000F739FB1B380586008C10780E8400790E0A
:1000C0008300FA0E7A0E09000313831608308600A7
:1000D000F03085006400E7308100F001F101F201A9
:1000E000F301F401F501F601F70102308C007C30D8
:1000F0009200831207309F001F309200FF01B6016B
:10010000B701FE0181019101FC01FD010130AA004E
:10011000C0308B00A417831630309B00CB251427EA
:10012000A400CB251427B900CB251427BA00CB2572
:100130001427BB00FA3087236830AC008830AD004C
:10014000DB2424186121A418BA202419E920A41959
:100150009C21241A9C2179269630A4236E23A61B69
:10016000B601A61BFD01261CB7280027A128A6184A
:100170009126A1287F19CA2861217F08F839031D1B
:10018000080023082204031D08002108083C031C62
:1001900008007F154A210139031908008322AF01A5
:1001A0007F18E728FF1CD828A001A101A201E028A0
:1001B0005525FF390319E728F824A308031DE7286C
:1001C00003301725E130F7000130F60008007F11F9
:1001D00008007F1D232970217F08F839031D0800BE
:1001E000AB01AF080319FB280310AF0CAE0CAD0C2C
:1001F000AC0CAB0AF1285525FF3903192129AB08AE
:10020000031909290310AF0CAE0CAD0CAC0CAB03F9
:10021000002940302C024230031C013E2D020F30D9
:10022000031C013E2E020301031C013E2F02031892
:100230002129F82403301725E330F7000130F600B8
:1002400008007F1108004A210139031908008322A0
:10025000AF017F184829B00803193C29FF1843292A
:10026000F82423082204031D392909302102031C24
:100270004829030117253F290730E524F015E3300D
:100280000838F70008000930E524E330F7000800DB
:100290007F150800391C4E297B1F5D29B91C522986
:1002A000FB1F5D29391D56297C1C5D29B91D5A2962
:1002B000FC1C5D29B51B00345F29B5130034B5174C
:1002C000013470217F08F839031D0800F824030168
:1002D0001725F708031D0800E1300838F70008006B
:1002E000FF197E29AE01AF01861183166400E73045
:1002F0008100861183120B11FF1508000B1D842944
:100300000B11AE0A0319AF0A7F1E08000108AD00E9
:10031000A901011C91298615A90A861101188B29AA
:1003200096298615A90A8611011C9129A909290A6D
:10033000AC000730FF0508004A2101390319080005
:100340000830B1007B08B2007C0AB30098220B1978
:10035000262AB00803192A2AFF182F2A30080F3C32
:10036000031C262A7F1C192A7B0832027C08031CE6
:100370007C0F3302031CBE29B10BA6292C08A00058
:100380002D08A1002E08A20083227F1CD7291C2340
:10039000FF180800161808007F1C192A2C08A00056
:1003A000A101A2010823161808007F18262AFF18A9
:1003B0002F2A2C08A0022D08031C2D0FA1022E08A5
:1003C000031C2E0FA2020318EF2921082205FF3A71
:1003D000031D080001302007031C072AFC292108FF
:1003E0002204031D08002008013C0318072A2008E6
:1003F000AC00AD01AE01172A2008AC072108031894
:10040000210FAD0722080318220FAE07172A732207
:10041000B000B0180800241A102A3018172A122A1F
:10042000301C172AAC01AC0AAD01AE01AF01B61702
:100430001A2AB6013522F030F7000130241A1030A4
:10044000F6080319F600031DF70008000930E5243B
:10045000B60108000730E524F015B60108000930A0
:10046000E524E330F700B60108002D0880392E049A
:100470000319462A0310AE0CAD0CAC0C0310AE0CE5
:10048000AD0CAC0CF82403011725080003102C0D4B
:10049000A0002D0DA1002E0DA200A00DA10DA20DFA
:1004A000A00DA10DA20D2C08A0072D0803182D0FDB
:1004B000A1072E0803182E0FA2070430A90003106D
:1004C000AC0DAD0DAE0DA90B5F2A2008AC072108BD
:1004D0000318210FAD0722080318220FAE07F824D6
:1004E0000230172508001E30B100B0018619B00A8D
:1004F000B10B762A30080A3C031800343008143C4B
:10050000031C01340234C522043081010C11970010
:100510000C1D882A1508AC001608AD002808AE008E
:10052000A8130C110C1D922A01089701E222080061
:10053000C522241AB02A053081010C1197000C1D28
:100540009F2A1508AC001608AD002808AE00A813B5
:1005500097030C110C1DAA2A010A9701E222080038
:10056000043081010C1197000C1DB42A1508AC0051
:100570001608AD002808AE00A813970A0C110C1D30
:10058000BF2A010A9701E22208000430FF0590010A
:100590008E018F010C10A8016400F830A419E83016
:1005A0008316810086150C1483128B138C1CD62A9B
:1005B0008B1781010B11240806390130031D2130EE
:1005C00090000800B0000B197F14023C031C7F143C
:1005D00090010C11A81BA803AE1BAE037F30A80529
:1005E000AE052E082802AE002D081602AD00031C31
:1005F000AE032C081502AC000318032BAD03AD0AA3
:100600000319AE03AD03AF0183160C10831208006B
:100610003F23043081010C1197000C1D0D2B150890
:10062000AC000C110C1D122B0108970156232C084D
:10063000073C03187F1408003F23241A2F2B053092
:1006400081010C1197000C1D232B1508AC0097039A
:100650000C110C1D292B010A9701562308000430A8
:1006600081010C1197000C1D332B1508AC00970A63
:100670000C110C1D392B010A970156230800043078
:10068000FF0590018E018F010C106400F830A41951
:10069000E83083168100861583128B138C1C4E2B39
:1006A0008B1781010B11013090000800AB000B1972
:1006B0007F14023C031C7F1490010C112C081502BE
:1006C000AC00AD01AE01AF0183160C1083120130F6
:1006D0009608031D96000C1896000800A601FF1A44
:1006E00008008B1306088601C4008316FF308500BE
:1006F000831205090339A6008316F03085008312A2
:10070000440886008B17A608031DA61708007B0760
:10071000B4007B083406031D892B0800A700093CA0
:10072000031C0034270803308A0027089A3E031868
:100730008A0A820077340634B3349734C634D53409
:10074000F5340734F734D734FF3E000000000000D2
:100750000000000000000000000000000000000099
:100760000000031DA42B08006E2332308723A61B34
:10077000B42B323087236E23A61BB42B0800023023
:100780003B07A9000310A90DFA3087236E23A61B8F
:100790000134A90BC42B003426080339FF3EFD01A8
:1007A0000800FF012408A500F723B423BF23003A63
:1007B0000319F22BCC23003A0319EC2B013A031D49
:1007C000D42B831630309B0083122408A500D1253A
:1007D0000301E524B423F22B01300310A40DA41A65
:1007E000A400D42B2508A4000830E5240800241810
:1007F0000130A418023024190330A4190430241A3B
:100800000530E5240800A70004308A0027080B3EC5
:1008100003188A0A820080348034D634F134D53407
:10082000803480340034E134A034F134C7341034DF
:100830001034D534F034E134A034F134C7341034FA
:100840001034D534E3340034E334F134A0340434C8
:10085000B434B6340034F034003410341034673417
:10086000103410340034F034003401340134763460
:10087000013401340034D534F134F034F03406342A
:1008800067347534D5340034003467347734103429
:10089000D534063475348034713477347634673423
:1008A000F03480348034E1341034F034B434B4346F
:1008B0001034E4340434E3340634A434B63400345D
:1008C000003400340034F0347734E134E13400345F
:1008D000003400340034F034F4343434F034003470
:1008E0000034003400340034003400340034003468
:1008F000003400340034E134E334F0348034F03434
:10090000F134D534F0340034003400340034003491
:100910000034003400348034E634F1347034703400
:100920007734803400340034003400340034003430
:10093000003400340034E7343434F034E434B43474
:10094000A0340034003400340034F434E73470341C
:10095000E734F134763400340034F434E734D534F9
:10096000E4340434A03400340034B334773406342F
:10097000C634003400340034003400340034003411
:100980000034003400340034803470347734E73479
:10099000B6348034003400348034D534E7347634CF
:1009A000F13480340034F034B4341034D53470343D
:1009B000F134F134E3342C08EA242D082C02031816
:1009C0000800AC0AA0308723DB2CAB000310AB0D72
:1009D000AB0D2B0DAB000830A900AB0777308400BE
:1009E00029082B02032480008403A90BF02C0800A3
:1009F0002030A900A001A101A201A30120308400A0
:100A00000430B000333080078019F039801B0F3973
:100A10008002840AB00B022DAC0DAD0DAE0DAF0DF2
:100A2000A00DA10DA20DA30DA90BFE2C08008B1388
:100A30008C1C182D8B17B000073C031CB00130082C
:100A4000B101B1030310B10DFF3E0318222D773021
:100A5000AD002330AE000430A9002E088400AE03A0
:100A60000008AC002D088400AD03AD032C0E0F3937
:100A7000031DB1018E23B11B003080000310B10DA6
:100A800084032C080F39031DB1018E23B11B0030E4
:100A900080000310B10DA90B2D2DB008031908001B
:100AA000703030078400801508002C082D042E04B7
:100AB000031900343B30A3009A30A200CA30A100D1
:100AC000A00103102E0CB2002D0CB1002C0CB000B4
:100AD0003008A00731080318310FA10732080318A6
:100AE000320FA2070318A30A7E252008AC002108B4
:100AF000AD002208AE002308AF000134B001B101FF
:100B0000B201B3012030A900A00DA10DA20DA30DCB
:100B1000B00DB10DB20DB30D2C08B31B9C2DB0025E
:100B20002D08031C2D0FB1022E08031C2E0FB2023C
:100B30000130031CB302A82DB0072D0803182D0F98
:100B4000B1072E0803182E0FB20701300318B307A0
:100B5000A90B842DA00DA10DA20DA30D0800163028
:100B6000E5248B130430850086018316F33085005D
:100B7000803086008312060883168B150B106300E5
:100B80008B117C309200F030850008308600831293
:100B90008B17B423080083161C141A089B0A8312AF
:100BA000080083169A008B13831286018511FA3090
:100BB000A423FA30A423FA30A42383161C1555303D
:100BC0009D00AA309D009C148B1783128C1FE62D6C
:100BD0008C1383161C119B0A831208000130B0008D
:100BE0003908B1003726B4230730B0190301B60025
:100BF000BF23003A0319242ECC23003A03190E2EEA
:100C0000013A031DF22DB01D082E8326B4230800DF
:100C100001300310B10D311AB100F22D3108301836
:100C2000B900B018BA003019BB0001300310B00D84
:100C3000301AB000B019F22D30183908B0183A083F
:100C400030193B08B100F22D31083018B900B01846
:100C5000BA003019BB00831631309B00831239086B
:100C6000D1253A08D1253B08D125B6010800301816
:100C70000A30B0180B3030190C30B0191230E5249E
:100C80004426B01DF7150800301C582E7730311857
:100C9000D530F0007730B118D5303118B330F100CD
:100CA000773031190630B119B330F200F21508006F
:100CB000B01C6B2E0301B118063031199730B119F1
:100CC000F530F100F730B118F5303119B330B11902
:100CD000C630F0000800301D08007730311897301A
:100CE000B118C6303119F530F0000630B119F100F5
:100CF000080003103A0DA900290D7D06031D080008
:100D0000AF25FD010800FA308723FA3087238830A9
:100D1000AC00B030AD00DB24FA308723FA308723F3
:100D200008000730FF0524180301A418083024190F
:100D30001030A4191830241A203083169B00831217
:100D40007008BC007108BD007208BE007308BF00C7
:100D50007408C0007508C1007608C2007708C30097
:100D60001730E524643087236E232618D02E0530F3
:100D70008723A61BB42E193087236E23A61BB42EFF
:100D8000703084000830A900CB258000840AA90BAC
:100D9000C42EFF30B600FC017C1ECC2EB60108002C
:100DA0001830E524B423FF30B6003C30840008300E
:100DB000A9000008D125840AA90BD92EFC01FC1D2D
:100DC000DF2EB6010800A5010630251C1930E524E8
:100DD000B423BF23003A0319FB2ECC23003A031D92
:100DE000F32EA509E42E013A031DE42E0301E524A8
:100DF000B4232518EE25251CAF250830E52408006E
:100E00000730FF0564308723F7231E30A9006E23C7
:100E10003230872326190800A61F122FA90B072F8F
:100E2000E3260800D12308001F39A41F0F39AB00A7
:100E3000B0000530A90003013018013EB00CA90B29
:0C0E40001C2F013A031D01342B08080090
:02400E00223F4F
:104200007700000000000000000000000000000037
:104210007700000000000000000000000000000027
:104220007700000000000000000000000000000017
:104230007700000000000000000000000000000007
:1042400077000000000000000000000000000000F7
:0842600001000200020004004D
:1042800041007500740068006F0072003A00200061
:104290002000420061007300680069007200200085
:1042A000420061006C0061007900650076002E001C
:1042B00020004E0061006C006300680069006B0024
:1042C000200032003000310034002E002000620057
:1042D0006100730068002D00300037004000790055
:1042E00061006E006400650078002E0072007500A9
:00000001FF
