:020000040000FA
:02000000642872
:08000800FA00030EF900040EDA
:10001000F800030183008C1821280C1810285D2893
:100020000C10A813A80A0C1D1A28960803191A28E0
:10003000A8175D282E302802031C5D28FF140C151C
:100040005D28FF1D3F28FF1B2D28FF178615FE0189
:1000500081018316861583123F28FF1E35288316DB
:100060000000861183127F163F28FE0A031D3F28D9
:100070007F1B3E287F170D30FE003F28FF16FB0A2E
:100080000319FC0A0319FD0A3608AA0AAA19AA01CB
:100090000319B700B70CB801031CB803860185012A
:1000A00070302A0784002A08801908388500000863
:1000B000F739FB1B380586008C10780E8400790E0A
:1000C0008300FA0E7A0E09000313831608308600A7
:1000D000F03085006400E7308100F001F101F201A9
:1000E000F301F401F501F601F70102308C007C30D8
:1000F0009200831207309F0007309200FF01B60183
:10010000B701FE0181019101FC01FD010130AA004E
:10011000C0308B00A417831630309B007F25C82683
:10012000A4007F25C826B9007F25C826BA007F25F0
:10013000C826BB00FA3047236830AC008830AD00D9
:100140008F2424186121A418BA202419E920A419A5
:100150009C21241A9C212D26963064232E23A61B35
:10016000B601A61BFD01261CB728B426A128A61897
:100170004526A1287F19CA2861217F08F839031D67
:10018000080023082204031D08002108083C031C62
:1001900008007F154A210139031908004722AF01E1
:1001A0007F18E728FF1CD828A001A101A201E028A0
:1001B0000925FF390319E728AC24A308031DE72804
:1001C0000330CB24E130F7000130F60008007F1146
:1001D00008007F1D232970217F08F839031D0800BE
:1001E000AB01AF080319FB280310AF0CAE0CAD0C2C
:1001F000AC0CAB0AF1280925FF3903192129AB08FA
:10020000031909290310AF0CAE0CAD0CAC0CAB03F9
:10021000002940302C024230031C013E2D020F30D9
:10022000031C013E2E020301031C013E2F02031892
:100230002129AC240330CB24E330F7000130F60051
:1002400008007F1108004A210139031908004722DC
:10025000AF017F184829B00803193C29FF1843292A
:10026000AC2423082204031D392909302102031C70
:1002700048290301CB243F2907309924F015E330A6
:100280000838F700080009309924E330F700080027
:100290007F150800391C4E297B1F5D29B91C522986
:1002A000FB1F5D29391D56297C1C5D29B91D5A2962
:1002B000FC1C5D29B51B00345F29B5130034B5174C
:1002C000013470217F08F839031D0800AC240301B4
:1002D000CB24F708031D0800E1300838F7000800B8
:1002E000FF197E29AE01AF01861183166400E73045
:1002F0008100861183120B11FF1508000B1D842944
:100300000B11AE0A0319AF0A7F1E08000108AD00E9
:10031000A901011C91298615A90A861101188B29AA
:1003200096298615A90A8611011C9129A909290A6D
:10033000AC000730FF0508004A2101390319080005
:100340000830B1007B08B2007C0AB3005C220B19B4
:10035000282AB00803192C2AFF18312A30080F3C2C
:10036000031C282A7F1C192A7B0832027C08031CE4
:100370007C0F3302031CBE29B10BA6292C08A00058
:100380002D08A1002E08A20047227F1CD729DC22BD
:10039000FF180800161808007F1C192A2C08A00056
:1003A000A101A201C822161808007F18282AFF18E8
:1003B000312A2C08A0022D08031C2D0FA1022E08A3
:1003C000031C2E0FA2020318EF2921082205FF3A71
:1003D000031D080001302007031C072AFC292108FF
:1003E0002204031D08002008013C0318072A2008E6
:1003F000AC00AD01AE01172A2008AC072108031894
:10040000210FAD0722080318220FAE07172A372243
:10041000B000B0180800241A102A3018172A122A1F
:10042000301C172AAC01AC0AAD01AE01AF01B61702
:100430001A2AB601AC240301CB24F030F7000130B6
:10044000241A1030F6080319F600031DF7000800FF
:1004500009309924B601080007309924F015B60137
:10046000080009309924E330F700B60108001E3077
:10047000B100B0018619B00AB10B3A2A30080A3C23
:10048000031800343008143C031C01340234892260
:10049000043081010C1197000C1D4C2A1508AC008A
:1004A0001608AD002808AE00A8130C110C1D562A22
:1004B00001089701A22208008922241A742A053013
:1004C00081010C1197000C1D632A1508AC00160859
:1004D000AD002808AE00A81397030C110C1D6E2A5E
:1004E000010A9701A2220800043081010C11970033
:1004F0000C1D782A1508AC001608AD002808AE00BF
:10050000A813970A0C110C1D832A010A9701A22235
:1005100008000430FF0590018E018F010C10A80126
:100520006400F830A419E8308316810086150C1495
:1005300083128B138C1C9A2A8B1781010B110130AB
:1005400090000800B0000B197F14023C031C7F14BC
:1005500090010C11A81BA803AE1BAE037F30A805A9
:10056000AE052E082802AE002D081602AD00031CB1
:10057000AE032C081502AC000318C32AAD03AD0A64
:100580000319AE03AD03AF0183160C1083120800EC
:10059000FF22043081010C1197000C1DCD2A150893
:1005A000AC000C110C1DD22A0108970116232C084F
:1005B000073C03187F140800FF22241AEF2A053095
:1005C00081010C1197000C1DE32A1508AC0097035C
:1005D0000C110C1DE92A010A9701162308000430AA
:1005E00081010C1197000C1DF32A1508AC00970A25
:1005F0000C110C1DF92A010A97011623080004307A
:10060000FF0590018E018F010C106400F830A419D1
:10061000E83083168100861583128B138C1C0E2BF9
:100620008B1781010B11013090000800AB000B19F2
:100630007F14023C031C7F1490010C112C0815023E
:10064000AC00AD01AE01AF0183160C108312013076
:100650009608031D96000C1896000800A601FF1AC4
:1006600008008B1306088601C4008316FF3085003E
:10067000831205090339A6008316F0308500831222
:10068000440886008B17A608031DA61708007B07E1
:10069000B4007B083406031D492B0800A700093C61
:1006A000031C0034270803308A0027085A3E031829
:1006B0008A0A820077340634B3349734C634D5348A
:1006C000F5340734F734D734FF3E031D642B08009C
:1006D0002E2332304723A61B682B323047232E238C
:1006E000A61B682B080002303B07A9000310A90DC8
:1006F000FA3047232E23A61B0134A90B782B003494
:1007000026080339FF3EFD010800FF012408A5006B
:10071000AB2368237323003A0319A62B8023003AE6
:100720000319A02B013A031D882B831630309B0040
:1007300083122408A5008525030199246823A62B8C
:1007400001300310A40DA41AA400882B2508A400CE
:1007500008309924080024180130A4180230241904
:100760000330A4190430241A053099240800A70086
:1007700003308A002708BF3E03188A0A82008034AB
:100780008034D634F134D534803480340034E134CC
:10079000A034F134C73410341034D534F034E1349B
:1007A000A034F134C73410341034D534E334003479
:1007B000E334F134A0340434B434B6340034F034C7
:1007C0000034103410346734103410340034F034F2
:1007D0000034013401347634013401340034D5342A
:1007E000F134F034F034063467347534D5340034E1
:1007F0000034673477341034D5340634753480349B
:100800007134773476346734F03480348034E134B2
:100810001034F034B434B4341034E4340434E334F5
:100820000634A434B6340034003400340034F034D8
:100830007734E134E1340034003400340034F034EF
:10084000F4343434F03400340034003400340034F0
:100850000034003400340034003400340034E13417
:10086000E334F0348034F034F134D534F0340034EF
:100870000034003400340034003400340034803458
:10088000E634F1347034703477348034003400341A
:100890000034003400340034003400340034E734D1
:1008A0003434F034E434B434A0340034003400344C
:1008B0000034F434E7347034E734F13476340034FF
:1008C0000034F434E734D534E4340434A034003450
:1008D0000034B33477340634C63400340034003482
:1008E0000034003400340034003400340034003468
:1008F000803470347734E734B634803400340034D4
:100900008034D534E7347634F13480340034F03434
:10091000B4341034D5347034F134F134E3342C0869
:100920009E242D082C0203180800AC0AA03047238F
:100930008F2CAB000310AB0DAB0D2B0DAB000830B3
:10094000A900AB077730840029082B02B723800069
:100950008403A90BA42C08002030A900A001A10148
:10096000A201A301203084000430B000333080079E
:100970008019F039801B0F398002840AB00BB62C25
:10098000AC0DAD0DAE0DAF0DA00DA10DA20DA30DC3
:10099000A90BB22C08008B138C1CCC2C8B17B0002D
:1009A000073C031CB0013008B101B1030310B10DC5
:1009B000FF3E0318D62C7730AD002330AE00043054
:1009C000A9002E088400AE030008AC002D088400A6
:1009D000AD03AD032C0E0F39031DB1014E23B11B26
:1009E000003080000310B10D84032C080F39031D63
:1009F000B1014E23B11B003080000310B10DA90BD3
:100A0000E12CB0080319080070303007840080150D
:100A100008002C082D042E04031900343B30A300D9
:100A20009A30A200CA30A100A00103102E0CB2001F
:100A30002D0CB1002C0CB0003008A00731080318B1
:100A4000310FA10732080318320FA2070318A30AB7
:100A500032252008AC002108AD002208AE00230892
:100A6000AF000134B001B101B201B3012030A900DF
:100A7000A00DA10DA20DA30DB00DB10DB20DB30DC2
:100A80002C08B31B502DB0022D08031C2D0FB102F2
:100A90002E08031C2E0FB2020130031CB3025C2D82
:100AA000B0072D0803182D0FB1072E0803182E0FBD
:100AB000B20701300318B307A90B382DA00DA10D03
:100AC000A20DA30D0800163099248B130430850065
:100AD00086018316F3308500803086008312060875
:100AE00083168B150B1063008B117C309200F03055
:100AF00085000830860083128B1768230800831650
:100B00001C141A089B0A8312080083169A008B1380
:100B1000831286018511FA306423FA306423FA3097
:100B2000642383161C1555309D00AA309D009C142B
:100B30008B1783128C1F9A2D8C1383161C119B0A02
:100B4000831208000130B0003908B100EB2568239A
:100B50000730B0190301B6007323003A0319D82DEA
:100B60008023003A0319C22D013A031DA62DB01DA2
:100B7000BC2D37266823080001300310B10D311A4F
:100B8000B100A62D31083018B900B018BA003019DC
:100B9000BB0001300310B00D301AB000B019A62D03
:100BA00030183908B0183A0830193B08B100A62DA2
:100BB00031083018B900B018BA003019BB008316DC
:100BC00031309B008312390885253A0885253B087A
:100BD0008525B601080030180A30B0180B303019DE
:100BE0000C30B01912309924F825B01DF715080003
:100BF000301C0C2E77303118D530F0007730B1181A
:100C0000D5303118B330F100773031190630B119D1
:100C1000B330F200F2150800B01C1F2E0301B1180A
:100C2000063031199730B119F530F100F730B118AD
:100C3000F5303119B330B119C630F0000800301D5D
:100C40000800773031189730B118C6303119F530B7
:100C5000F0000630B119F100080003103A0DA900A8
:100C6000290D7D06031D08006325FD010800FA30EB
:100C70004723FA3047238830AC00B030AD008F24D2
:100C8000FA304723FA30472308000730FF052418BD
:100C90000301A418083024191030A4191830241A9C
:100CA000203083169B0083127008BC007108BD00C1
:100CB0007208BE007308BF007408C0007508C10048
:100CC0007608C2007708C3001730992464304723A0
:100CD0002E232618842E05304723A61B682E193094
:100CE00047232E23A61B682E703084000830A900ED
:100CF0007F258000840AA90B782EFF30B600FC0106
:100D00007C1E802EB6010800183099246823FF301D
:100D1000B6003C3084000830A90000088525840A0C
:100D2000A90B8D2EFC01FC1D932EB6010800A50118
:100D30000630251C1930992468237323003A0319BF
:100D4000AF2E8023003A031DA72EA509982E013A45
:100D5000031D982E0301992468232518A225251C1C
:100D600063250830992408000730FF0564304723C5
:100D7000AB231E30A9002E2332304723261908004A
:100D8000A61FC62EA90BBB2E972608008523080098
:100D90001F39A41F0F39AB00B0000530A9000301B3
:100DA0003018013EB00CA90BD02E013A031D0134BE
:040DB0002B08080004
:02400E00223F4F
:104200007700000000000000000000000000000037
:104210007700000000000000000000000000000027
:104220007700000000000000000000000000000017
:104230007700000000000000000000000000000007
:1042400077000000000000000000000000000000F7
:0842600001000200020004004D
:1042800041007500740068006F0072003A00200061
:104290002000420061007300680069007200200085
:1042A000420061006C0061007900650076002E001C
:1042B00020004E0061006C006300680069006B0024
:1042C000200032003000310034002E002000620057
:1042D0006100730068002D00300037004000790055
:1042E00061006E006400650078002E0072007500A9
:00000001FF
