:100000000AC01895189518959DC01895FFC01895A9
:100010001895189518958FED8DBFC8EBE0EA4E2E18
:10002000DD275D2EEEE7F0E0A0E6B0E088278D93B7
:100030003197E9F766247FEF77BB7FEF78BB7FE6E8
:1000400071BB86E083BF79B7726079BF80E08FBDF6
:100050008DE08EBD79B7706479BF8BE49CE49BBD65
:100060008ABD789482E0809360007FE672BBE0E313
:10007000F2E0A0E6AD90A4E7AA0D8C919927A8E341
:100080002CD100916000083009F009C00091750082
:10009000063010F009F001C001C0939840C007304D
:1000A00009F009C000917500053010F009F001C099
:1000B00001C0929834C0063009F009C00091750063
:1000C000043010F009F001C001C0919828C005303B
:1000D00009F009C000917500033010F009F001C06B
:1000E00001C090981CC0043009F009C0009175004F
:1000F000023010F009F001C001C0959810C0033023
:1001000009F009C000917500013010F009F001C03C
:1001100001C0C09804C0023009F001C096988091D7
:10012000600081508093600000916000013009F010
:1001300003C088E08093600081E090E087D095CF95
:10014000F894FFCF8F9382B7809374008FB78F930B
:10015000AF92BF92CF92DF92EF92FF920F931F93D5
:100160002F933F934F935F936F937F939F93AF939F
:10017000BF93CF93DF93EF93FF93A0E78D919C9173
:10018000A1E68D939D9388278D938C9398E0A1E6AB
:1001900086D0A1E60D911D912D913C91A4E74C9143
:1001A0005527662777279CD0A1E60D931D932D93A5
:1001B0003D93A5E6E1E6F0E0ABD0E5E6F0E0A5E7AB
:1001C0005ED080E090E0A0E78D939C93FF91EF914B
:1001D000DF91CF91BF91AF919F917F916F915F918F
:1001E0004F913F912F911F910F91FF90EF90DF90D2
:1001F000CF90BF90AF9080E08CBD8DBD82BF88B79F
:10020000816088BF8F918FBF8F9118950F930FB723
:100210008F939F93809170009091710001968093CD
:100220007000909371009F918F910FBF0F9118955F
:10023000117D23294D89813D01093197F1F70895F9
:10024000689462F80895E89462F80895EF93FF9334
:10025000EE27E82BE92B31F0E8E8F3E13197F1F7ED
:100260000197D1F7FF91EF9108950D911D912D9177
:100270003C91089501911191219130810895992720
:100280008191882321F080538A939395F9CF9D9390
:10029000992321F089918D939A95E1F708959030F3
:1002A00059F0E3DF000F111F221F331F9A95D1F77A
:1002B0003C932E931E930E930895C895319600207B
:1002C000089591E005C092E003C094E001C098E079
:1002D000F4DF0D929A95E1F70895E80FF91FF1CF39
:1002E000040F151F261F371F0895000F111F221F0F
:1002F000331F089500951095209530950F5F1F4F7F
:100300002F4F3F4F0895019110810DC0B3DF0DC0F5
:10031000B1DF10C00191108117FF05C03FEF2FEF33
:1003200004C0008111272227332737FF03C0E2DFF3
:100330008DE28D93CF92DF92EF92AA24BB24CC243E
:10034000DD24EE2440E2EAE0FF2755E093E38081DC
:10035000890F87FD9F7083FD907F891B81935A953C
:10036000A9F7C3DFAA1CBB1CCC1CDD1CEE1C4A95E4
:1003700051F7E894EFE0FF2782910CD0EB30E0F7E3
:100380001EF068948A2D0AD088278D93EF90DF9015
:10039000CF900895982F829501D0892F8F70805D1E
:0E03A00026F0803309F4089568948D93089533
:00000001FF
